{
  "contractName": "LoadingCoin",
  "abi": [
    {
      "inputs": [],
      "stateMutability": "nonpayable",
      "type": "constructor"
    },
    {
      "anonymous": false,
      "inputs": [
        {
          "indexed": true,
          "internalType": "address",
          "name": "tokenOwner",
          "type": "address"
        },
        {
          "indexed": true,
          "internalType": "address",
          "name": "spender",
          "type": "address"
        },
        {
          "indexed": false,
          "internalType": "uint256",
          "name": "tokens",
          "type": "uint256"
        }
      ],
      "name": "Approve",
      "type": "event"
    },
    {
      "anonymous": false,
      "inputs": [
        {
          "indexed": true,
          "internalType": "address",
          "name": "from",
          "type": "address"
        },
        {
          "indexed": true,
          "internalType": "address",
          "name": "to",
          "type": "address"
        },
        {
          "indexed": false,
          "internalType": "uint256",
          "name": "tokens",
          "type": "uint256"
        }
      ],
      "name": "Transfer",
      "type": "event"
    },
    {
      "inputs": [
        {
          "internalType": "address",
          "name": "",
          "type": "address"
        }
      ],
      "name": "balances",
      "outputs": [
        {
          "internalType": "uint256",
          "name": "",
          "type": "uint256"
        }
      ],
      "stateMutability": "view",
      "type": "function",
      "constant": true
    },
    {
      "inputs": [],
      "name": "decimals",
      "outputs": [
        {
          "internalType": "uint256",
          "name": "",
          "type": "uint256"
        }
      ],
      "stateMutability": "view",
      "type": "function",
      "constant": true
    },
    {
      "inputs": [],
      "name": "name",
      "outputs": [
        {
          "internalType": "string",
          "name": "",
          "type": "string"
        }
      ],
      "stateMutability": "view",
      "type": "function",
      "constant": true
    },
    {
      "inputs": [],
      "name": "owner",
      "outputs": [
        {
          "internalType": "address",
          "name": "",
          "type": "address"
        }
      ],
      "stateMutability": "view",
      "type": "function",
      "constant": true
    },
    {
      "inputs": [],
      "name": "symbol",
      "outputs": [
        {
          "internalType": "string",
          "name": "",
          "type": "string"
        }
      ],
      "stateMutability": "view",
      "type": "function",
      "constant": true
    },
    {
      "inputs": [],
      "name": "totalSupply",
      "outputs": [
        {
          "internalType": "uint256",
          "name": "",
          "type": "uint256"
        }
      ],
      "stateMutability": "view",
      "type": "function",
      "constant": true
    },
    {
      "inputs": [
        {
          "internalType": "address",
          "name": "_address",
          "type": "address"
        }
      ],
      "name": "balanceOf",
      "outputs": [
        {
          "internalType": "uint256",
          "name": "",
          "type": "uint256"
        }
      ],
      "stateMutability": "view",
      "type": "function",
      "constant": true
    },
    {
      "inputs": [
        {
          "internalType": "address",
          "name": "to",
          "type": "address"
        },
        {
          "internalType": "uint256",
          "name": "tokens",
          "type": "uint256"
        }
      ],
      "name": "transfer",
      "outputs": [
        {
          "internalType": "bool",
          "name": "",
          "type": "bool"
        }
      ],
      "stateMutability": "nonpayable",
      "type": "function"
    },
    {
      "inputs": [
        {
          "internalType": "address",
          "name": "tokenOwner",
          "type": "address"
        },
        {
          "internalType": "address",
          "name": "spender",
          "type": "address"
        }
      ],
      "name": "allowance",
      "outputs": [
        {
          "internalType": "uint256",
          "name": "remaining",
          "type": "uint256"
        }
      ],
      "stateMutability": "view",
      "type": "function",
      "constant": true
    },
    {
      "inputs": [
        {
          "internalType": "address",
          "name": "spender",
          "type": "address"
        },
        {
          "internalType": "uint256",
          "name": "tokens",
          "type": "uint256"
        }
      ],
      "name": "approve",
      "outputs": [
        {
          "internalType": "bool",
          "name": "success",
          "type": "bool"
        }
      ],
      "stateMutability": "nonpayable",
      "type": "function"
    },
    {
      "inputs": [
        {
          "internalType": "address",
          "name": "from",
          "type": "address"
        },
        {
          "internalType": "address",
          "name": "to",
          "type": "address"
        },
        {
          "internalType": "uint256",
          "name": "tokens",
          "type": "uint256"
        }
      ],
      "name": "transferFrom",
      "outputs": [
        {
          "internalType": "bool",
          "name": "success",
          "type": "bool"
        }
      ],
      "stateMutability": "nonpayable",
      "type": "function"
    }
  ],
  "bytecode": "0x60c0604052600b60808190526a2637b0b234b733a1b7b4b760a91b60a090815261002c91600091906100a4565b50604080518082019091526003808252624c444360e81b6020909201918252610057916001916100a4565b50601260025534801561006957600080fd5b50600480546001600160a01b0319163390811790915569d3c21bcecceda1000000600381905560009182526005602052604090912055610177565b8280546100b09061013d565b90600052602060002090601f0160209004810192826100d25760008555610118565b82601f106100eb57805160ff1916838001178555610118565b82800160010185558215610118579182015b828111156101185782518255916020019190600101906100fd565b50610124929150610128565b5090565b5b808211156101245760008155600101610129565b600181811c9082168061015157607f821691505b60208210810361017157634e487b7160e01b600052602260045260246000fd5b50919050565b6107cb806101866000396000f3fe608060405234801561001057600080fd5b50600436106100b95760003560e01c8063313ce5671161008157806395d89b411161005b57806395d89b41146101a6578063a9059cbb146101ae578063dd62ed3e146101c157600080fd5b8063313ce5671461014957806370a08231146101525780638da5cb5b1461017b57600080fd5b806306fdde03146100be578063095ea7b3146100dc57806318160ddd146100ff57806323b872dd1461011657806327e235e314610129575b600080fd5b6100c66101fa565b6040516100d391906105ea565b60405180910390f35b6100ef6100ea36600461065b565b610288565b60405190151581526020016100d3565b61010860035481565b6040519081526020016100d3565b6100ef610124366004610685565b610387565b6101086101373660046106c1565b60056020526000908152604090205481565b61010860025481565b6101086101603660046106c1565b6001600160a01b031660009081526005602052604090205490565b60045461018e906001600160a01b031681565b6040516001600160a01b0390911681526020016100d3565b6100c66104fb565b6100ef6101bc36600461065b565b610508565b6101086101cf3660046106e3565b6001600160a01b03918216600090815260066020908152604080832093909416825291909152205490565b6000805461020790610716565b80601f016020809104026020016040519081016040528092919081815260200182805461023390610716565b80156102805780601f1061025557610100808354040283529160200191610280565b820191906000526020600020905b81548152906001019060200180831161026357829003601f168201915b505050505081565b336000908152600560205260408120548211156102e15760405162461bcd60e51b81526020600482015260126024820152714e6f7420656e6f7567687420746f6b656e7360701b60448201526064015b60405180910390fd5b600082116103225760405162461bcd60e51b815260206004820152600e60248201526d4e6f206d6f726520746f6b656e7360901b60448201526064016102d8565b3360008181526006602090815260408083206001600160a01b03881680855290835292819020869055518581529192917f6e11fb1b7f119e3f2fa29896ef5fdf8b8a2d0d4df6fe90ba8668e7d8b2ffa25e91015b60405180910390a350600192915050565b6001600160a01b0380841660009081526006602090815260408083209386168352929052908120548211156103fe5760405162461bcd60e51b815260206004820152601360248201527f54686973206973206e6f7420616c6c6f7765640000000000000000000000000060448201526064016102d8565b6001600160a01b03841660009081526005602052604090205482111561045b5760405162461bcd60e51b81526020600482015260126024820152714e6f7420656e6f7567687420746f6b656e7360701b60448201526064016102d8565b6001600160a01b03841660009081526005602052604081208054849290610483908490610766565b90915550506001600160a01b038316600090815260056020526040812080548492906104b090849061077d565b90915550506001600160a01b038085166000908152600660209081526040808320938716835292905290812080548492906104ec908490610766565b90915550600195945050505050565b6001805461020790610716565b3360009081526005602052604081205482111561055c5760405162461bcd60e51b81526020600482015260126024820152714e6f7420656e6f7567687420746f6b656e7360701b60448201526064016102d8565b336000908152600560205260408120805484929061057b908490610766565b90915550506001600160a01b038316600090815260056020526040812080548492906105a890849061077d565b90915550506040518281526001600160a01b0384169033907fddf252ad1be2c89b69c2b068fc378daa952ba7f163c4a11628f55a4df523b3ef90602001610376565b600060208083528351808285015260005b81811015610617578581018301518582016040015282016105fb565b81811115610629576000604083870101525b50601f01601f1916929092016040019392505050565b80356001600160a01b038116811461065657600080fd5b919050565b6000806040838503121561066e57600080fd5b6106778361063f565b946020939093013593505050565b60008060006060848603121561069a57600080fd5b6106a38461063f565b92506106b16020850161063f565b9150604084013590509250925092565b6000602082840312156106d357600080fd5b6106dc8261063f565b9392505050565b600080604083850312156106f657600080fd5b6106ff8361063f565b915061070d6020840161063f565b90509250929050565b600181811c9082168061072a57607f821691505b60208210810361074a57634e487b7160e01b600052602260045260246000fd5b50919050565b634e487b7160e01b600052601160045260246000fd5b60008282101561077857610778610750565b500390565b6000821982111561079057610790610750565b50019056fea264697066735822122084f786920bbb933c0edab508fd4683c1492bd28408585569bb9b5370c350c9c564736f6c634300080d0033",
  "immutableReferences": {},
  "source": "//SPDX-License-Identifier: GPL-3.0\n\npragma solidity >= 0.7.0 < 0.9.0;\n\n\ncontract LoadingCoin {\n    string public name = \"LoadingCoin\";\n    string public symbol = \"LDC\";\n    uint public decimals = 18;\n    uint public totalSupply;\n    address public owner;\n\n    event Transfer(address indexed from, address indexed to, uint tokens);\n    event Approve(address indexed tokenOwner, address indexed spender, uint tokens);\n\n    mapping(address => uint) public balances;\n\n    // set the allowance from owner to person to send tokens\n    mapping(address => mapping(address => uint)) allowed;\n\n\n    constructor() {\n        owner = msg.sender;\n        totalSupply = 1000000000000000000000000;\n        balances[owner] = totalSupply;\n    }\n\n    modifier onlyOwner {\n        require(owner == msg.sender, \"You are not the owner\"); \n        _;\n    }\n\n    function balanceOf(address _address) public view returns(uint) {\n        return balances[_address];\n    }\n\n    function transfer(address to, uint tokens) public returns(bool) {\n        // 1 - require that the msg.sender to have that amount of tokens\n        require(balances[msg.sender] >= tokens, \"Not enought tokens\");        \n        balances[msg.sender] -= tokens;\n        balances[to] += tokens;\n        emit Transfer(msg.sender, to, tokens);\n        return true;\n    }\n\n    function allowance(address tokenOwner, address spender) public view returns(uint remaining) {\n        // set the allowance on behalf \n        return allowed[tokenOwner][spender];\n    } \n\n    function approve(address spender, uint tokens) public returns(bool success) {\n        require(balances[msg.sender]>= tokens, \"Not enought tokens\");\n        require(tokens > 0, \"No more tokens\");\n\n        // we allow to spend the amount of tokens\n        allowed[msg.sender][spender] = tokens;\n\n        emit Approve(msg.sender, spender, tokens);\n\n        return true;\n    }\n\n    function transferFrom(address from, address to, uint tokens) public returns(bool success) {\n        require(allowed[from][to] >= tokens, \"This is not allowed\");\n        require(balances[from] >= tokens, \"Not enought tokens\");\n\n        balances[from] -= tokens;\n        balances[to] += tokens;\n\n        allowed[from][to] -= tokens;\n\n        return true;\n    }\n}",
  "sourcePath": "/Users/danielancuta/Development/blockchain/defi-project/src/contracts/LoadingCoin.sol",
  "compiler": {
    "name": "solc",
    "version": "0.8.13+commit.abaa5c0e.Emscripten.clang"
  },
  "schemaVersion": "3.4.7",
  "updatedAt": "2022-04-15T06:32:29.451Z",
  "networkType": "ethereum",
  "devdoc": {
    "kind": "dev",
    "methods": {},
    "version": 1
  },
  "userdoc": {
    "kind": "user",
    "methods": {},
    "version": 1
  }
}