{
  "contractName": "Migrations",
  "abi": [
    {
      "inputs": [],
      "name": "last_migration",
      "outputs": [
        {
          "internalType": "uint256",
          "name": "",
          "type": "uint256"
        }
      ],
      "stateMutability": "view",
      "type": "function",
      "constant": true
    },
    {
      "inputs": [],
      "name": "owner",
      "outputs": [
        {
          "internalType": "address",
          "name": "",
          "type": "address"
        }
      ],
      "stateMutability": "view",
      "type": "function",
      "constant": true
    },
    {
      "inputs": [
        {
          "internalType": "uint256",
          "name": "_completed",
          "type": "uint256"
        }
      ],
      "name": "setCompleted",
      "outputs": [],
      "stateMutability": "nonpayable",
      "type": "function"
    },
    {
      "inputs": [
        {
          "internalType": "address",
          "name": "_address",
          "type": "address"
        }
      ],
      "name": "updateStatus",
      "outputs": [],
      "stateMutability": "nonpayable",
      "type": "function"
    }
  ],
  "bytecode": "0x6080604052600080546001600160a01b0319163317905534801561002257600080fd5b50610256806100326000396000f3fe608060405234801561001057600080fd5b506004361061004c5760003560e01c806301162b93146100515780630205e44a146100665780638da5cb5b14610082578063fdacd576146100ad575b600080fd5b61006461005f3660046101d7565b6100c0565b005b61006f60015481565b6040519081526020015b60405180910390f35b600054610095906001600160a01b031681565b6040516001600160a01b039091168152602001610079565b6100646100bb366004610207565b610180565b6000546001600160a01b031633146101175760405162461bcd60e51b81526020600482015260156024820152742cb7ba9030b932903737ba103a34329037bbb732b960591b60448201526064015b60405180910390fd5b600154604051637ed66abb60e11b815282916001600160a01b0383169163fdacd5769161014a9160040190815260200190565b600060405180830381600087803b15801561016457600080fd5b505af1158015610178573d6000803e3d6000fd5b505050505050565b6000546001600160a01b031633146101d25760405162461bcd60e51b81526020600482015260156024820152742cb7ba9030b932903737ba103a34329037bbb732b960591b604482015260640161010e565b600155565b6000602082840312156101e957600080fd5b81356001600160a01b038116811461020057600080fd5b9392505050565b60006020828403121561021957600080fd5b503591905056fea264697066735822122055c80c26aca6696e06336123f6dfe88e81b744a7a0e34ff924f250525fb9328f64736f6c634300080d0033",
  "immutableReferences": {},
  "source": "//SPDX-License-Identifier: GPL-3.0\n\npragma solidity >= 0.7.0 < 0.9.0;\n\ncontract Migrations {\n    address public owner = msg.sender;\n    uint public last_migration;\n    \n    modifier onlyOwner {\n        require(owner == msg.sender, \"You are not the owner\");\n        _;\n    }\n\n    function setCompleted(uint _completed) public onlyOwner {\n        last_migration = _completed;\n    }\n\n    function updateStatus(address _address) public onlyOwner {\n        Migrations update = Migrations(_address);\n        update.setCompleted(last_migration);\n    }\n}",
  "sourcePath": "/Users/danielancuta/Development/blockchain/defi-project/src/contracts/Migration.sol",
  "compiler": {
    "name": "solc",
    "version": "0.8.13+commit.abaa5c0e.Emscripten.clang"
  },
  "schemaVersion": "3.4.7",
  "updatedAt": "2022-04-15T06:32:29.457Z",
  "networkType": "ethereum",
  "devdoc": {
    "kind": "dev",
    "methods": {},
    "version": 1
  },
  "userdoc": {
    "kind": "user",
    "methods": {},
    "version": 1
  }
}