{
  "contractName": "Dbank",
  "abi": [
    {
      "inputs": [
        {
          "internalType": "contract LoadingCoin",
          "name": "_loadingCoin",
          "type": "address"
        },
        {
          "internalType": "contract RewardCoin",
          "name": "_rewardCoin",
          "type": "address"
        }
      ],
      "stateMutability": "nonpayable",
      "type": "constructor"
    },
    {
      "inputs": [
        {
          "internalType": "address",
          "name": "",
          "type": "address"
        }
      ],
      "name": "hasStaked",
      "outputs": [
        {
          "internalType": "bool",
          "name": "",
          "type": "bool"
        }
      ],
      "stateMutability": "view",
      "type": "function",
      "constant": true
    },
    {
      "inputs": [
        {
          "internalType": "address",
          "name": "",
          "type": "address"
        }
      ],
      "name": "isStaking",
      "outputs": [
        {
          "internalType": "bool",
          "name": "",
          "type": "bool"
        }
      ],
      "stateMutability": "view",
      "type": "function",
      "constant": true
    },
    {
      "inputs": [],
      "name": "loadingCoin",
      "outputs": [
        {
          "internalType": "contract LoadingCoin",
          "name": "",
          "type": "address"
        }
      ],
      "stateMutability": "view",
      "type": "function",
      "constant": true
    },
    {
      "inputs": [],
      "name": "name",
      "outputs": [
        {
          "internalType": "string",
          "name": "",
          "type": "string"
        }
      ],
      "stateMutability": "view",
      "type": "function",
      "constant": true
    },
    {
      "inputs": [],
      "name": "owner",
      "outputs": [
        {
          "internalType": "address",
          "name": "",
          "type": "address"
        }
      ],
      "stateMutability": "view",
      "type": "function",
      "constant": true
    },
    {
      "inputs": [],
      "name": "rewardCoin",
      "outputs": [
        {
          "internalType": "contract RewardCoin",
          "name": "",
          "type": "address"
        }
      ],
      "stateMutability": "view",
      "type": "function",
      "constant": true
    },
    {
      "inputs": [
        {
          "internalType": "uint256",
          "name": "",
          "type": "uint256"
        }
      ],
      "name": "stakers",
      "outputs": [
        {
          "internalType": "address",
          "name": "",
          "type": "address"
        }
      ],
      "stateMutability": "view",
      "type": "function",
      "constant": true
    },
    {
      "inputs": [
        {
          "internalType": "address",
          "name": "",
          "type": "address"
        }
      ],
      "name": "stakingBalance",
      "outputs": [
        {
          "internalType": "uint256",
          "name": "",
          "type": "uint256"
        }
      ],
      "stateMutability": "view",
      "type": "function",
      "constant": true
    },
    {
      "inputs": [
        {
          "internalType": "uint256",
          "name": "amount",
          "type": "uint256"
        }
      ],
      "name": "depositTokens",
      "outputs": [],
      "stateMutability": "nonpayable",
      "type": "function"
    },
    {
      "inputs": [],
      "name": "rewardTokens",
      "outputs": [],
      "stateMutability": "nonpayable",
      "type": "function"
    },
    {
      "inputs": [],
      "name": "unstackedTokens",
      "outputs": [],
      "stateMutability": "nonpayable",
      "type": "function"
    }
  ],
  "bytecode": "0x60c060405260056080819052644462616e6b60d81b60a0908152610026916000919061008e565b5034801561003357600080fd5b506040516109ec3803806109ec8339810160408190526100529161013f565b600180546001600160a01b03199081163317909155600280546001600160a01b03948516908316179055600380549290931691161790556101b3565b82805461009a90610179565b90600052602060002090601f0160209004810192826100bc5760008555610102565b82601f106100d557805160ff1916838001178555610102565b82800160010185558215610102579182015b828111156101025782518255916020019190600101906100e7565b5061010e929150610112565b5090565b5b8082111561010e5760008155600101610113565b6001600160a01b038116811461013c57600080fd5b50565b6000806040838503121561015257600080fd5b825161015d81610127565b602084015190925061016e81610127565b809150509250929050565b600181811c9082168061018d57607f821691505b6020821081036101ad57634e487b7160e01b600052602260045260246000fd5b50919050565b61082a806101c26000396000f3fe608060405234801561001057600080fd5b50600436106100b85760003560e01c80638da5cb5b11610081578063dd49756e1161005b578063dd49756e146101af578063dd935e5b146101c2578063fd5e6dd1146101d557600080fd5b80638da5cb5b14610171578063c2b18aa014610184578063c93c8f341461018c57600080fd5b80625783b8146100bd57806306fdde03146100c757806312be0eab146100e557806345bc78ab146101105780636f49712b1461013e575b600080fd5b6100c56101e8565b005b6100cf6102f3565b6040516100dc919061067b565b60405180910390f35b6003546100f8906001600160a01b031681565b6040516001600160a01b0390911681526020016100dc565b61013061011e3660046106d0565b60056020526000908152604090205481565b6040519081526020016100dc565b61016161014c3660046106d0565b60076020526000908152604090205460ff1681565b60405190151581526020016100dc565b6001546100f8906001600160a01b031681565b6100c5610381565b61016161019a3660046106d0565b60066020526000908152604090205460ff1681565b6100c56101bd366004610700565b6104c9565b6002546100f8906001600160a01b031681565b6100f86101e3366004610700565b610651565b33600090815260056020526040902054806102565760405162461bcd60e51b8152602060048201526024808201527f5468652062616c616e63652073686f756c6420626520677265617465722074686044820152630616e20360e41b60648201526084015b60405180910390fd5b60025460405163a9059cbb60e01b8152336004820152602481018390526001600160a01b039091169063a9059cbb906044016020604051808303816000875af11580156102a7573d6000803e3d6000fd5b505050506040513d601f19601f820116820180604052508101906102cb9190610719565b505033600090815260056020908152604080832083905560079091529020805460ff19169055565b600080546103009061073b565b80601f016020809104026020016040519081016040528092919081815260200182805461032c9061073b565b80156103795780601f1061034e57610100808354040283529160200191610379565b820191906000526020600020905b81548152906001019060200180831161035c57829003601f168201915b505050505081565b6001546001600160a01b031633146103db5760405162461bcd60e51b815260206004820152601560248201527f596f7520617265206e6f7420746865206f776e65720000000000000000000000604482015260640161024d565b60005b6004548110156104c6576000600482815481106103fd576103fd610775565b60009182526020808320909101546001600160a01b031680835260059091526040822054909250610430906009906107a1565b905080156104b15760035460405163a9059cbb60e01b81526001600160a01b038481166004830152602482018490529091169063a9059cbb906044016020604051808303816000875af115801561048b573d6000803e3d6000fd5b505050506040513d601f19601f820116820180604052508101906104af9190610719565b505b505080806104be906107c3565b9150506103de565b50565b600081116105195760405162461bcd60e51b815260206004820152601660248201527f54686520616d6f756e742063616e6e6f74206265203000000000000000000000604482015260640161024d565b6002546040516323b872dd60e01b8152336004820152306024820152604481018390526001600160a01b03909116906323b872dd906064016020604051808303816000875af1158015610570573d6000803e3d6000fd5b505050506040513d601f19601f820116820180604052508101906105949190610719565b5033600090815260056020526040812080548392906105b49084906107dc565b90915550503360009081526006602052604090205460ff166104c6576004805460018181019092557f8a35acfbc15ff81a39ae7d344fd709f28e8600b4aa8c65c6b64bfe7fe36bd19b01805473ffffffffffffffffffffffffffffffffffffffff1916339081179091556000908152600660209081526040808320805460ff19908116861790915560079092529091208054909116909117905550565b6004818154811061066157600080fd5b6000918252602090912001546001600160a01b0316905081565b600060208083528351808285015260005b818110156106a85785810183015185820160400152820161068c565b818111156106ba576000604083870101525b50601f01601f1916929092016040019392505050565b6000602082840312156106e257600080fd5b81356001600160a01b03811681146106f957600080fd5b9392505050565b60006020828403121561071257600080fd5b5035919050565b60006020828403121561072b57600080fd5b815180151581146106f957600080fd5b600181811c9082168061074f57607f821691505b60208210810361076f57634e487b7160e01b600052602260045260246000fd5b50919050565b634e487b7160e01b600052603260045260246000fd5b634e487b7160e01b600052601160045260246000fd5b6000826107be57634e487b7160e01b600052601260045260246000fd5b500490565b6000600182016107d5576107d561078b565b5060010190565b600082198211156107ef576107ef61078b565b50019056fea2646970667358221220cf7f742d849fb79d856d798d2349b4808e6296e99fee9e4f90008cb84899d7d264736f6c634300080d0033",
  "immutableReferences": {},
  "source": "//SPDX-License-Identifier: GPL-3.0\n\npragma solidity >= 0.7.0 < 0.9.0;\n\n\nimport './LoadingCoin.sol';\nimport './RewardCoin.sol';\n\ncontract Dbank {\n    string public name = \"Dbank\";\n    address public owner;\n    \n    // define the contract\n    LoadingCoin public loadingCoin;\n    RewardCoin public rewardCoin;\n\n    address[] public stakers;\n\n    mapping(address => uint) public stakingBalance;\n    mapping(address => bool) public hasStaked;\n    mapping(address => bool) public isStaking;\n\n    constructor(LoadingCoin _loadingCoin, RewardCoin _rewardCoin) {\n        owner = msg.sender;\n        loadingCoin = _loadingCoin;\n        rewardCoin = _rewardCoin;\n    }\n\n    modifier onlyOwner {\n        require(owner == msg.sender, \"You are not the owner\");\n        _;\n    }\n\n    function depositTokens(uint amount) public {\n        require(amount > 0, \"The amount cannot be 0\");\n\n        // transfer loadingCoin to this contract for staking\n        loadingCoin.transferFrom(msg.sender, address(this), amount);\n\n        // update staking balance\n        stakingBalance[msg.sender] += amount;\n\n        // check is hasStaked\n        if(!hasStaked[msg.sender]) {\n            stakers.push(msg.sender);\n            hasStaked[msg.sender] = true;\n            isStaking[msg.sender] = true;\n        } \n    }\n\n    function rewardTokens() public onlyOwner {\n        for(uint i = 0; i < stakers.length; i++) {\n            address recipient = stakers[i];\n            // we get balance to know how much to reward \n            uint balance = stakingBalance[recipient] / 9; // to create incentive\n            // transfer reward tokens if balance > 0\n            if(balance > 0) rewardCoin.transfer(recipient, balance);\n        }\n    }\n\n    function unstackedTokens() public {\n        uint balance = stakingBalance[msg.sender];\n        require(balance > 0, \"The balance should be greater than 0\");\n\n        // get back the tokens staked\n        loadingCoin.transfer(msg.sender, balance);\n\n        stakingBalance[msg.sender] = 0;\n        isStaking[msg.sender] = false;\n    }\n}\n\n   ",
  "sourcePath": "/Users/danielancuta/Development/blockchain/defi-project/src/contracts/Dbank.sol",
  "compiler": {
    "name": "solc",
    "version": "0.8.13+commit.abaa5c0e.Emscripten.clang"
  },
  "schemaVersion": "3.4.7",
  "updatedAt": "2022-04-13T18:07:39.002Z",
  "networkType": "ethereum",
  "devdoc": {
    "kind": "dev",
    "methods": {},
    "version": 1
  },
  "userdoc": {
    "kind": "user",
    "methods": {},
    "version": 1
  }
}